:020000040C00EE
:1040000000C8FF1F014200089142000891420008C9
:10401000914200089142000891420008000000000F
:1040200000000000000000000000000091420008B5
:104030009142000800000000914200089D5E0008C7
:104040009142000891420008914200089142000804
:1040500091420008914200089142000891420008F4
:104060009142000800000000000000000000000075
:1040700091420008000000009142000891420008AF
:1040800091420008914200089142000891420008C4
:1040900091420008914200089142000891420008B4
:1040A000914200089142000800000000000000005A
:1040B0000000000000000000000000000000000000
:1040C00000000000000000000000000000000000F0
:1040D00000000000000000000000000000000000E0
:1040E000000000000000000091420008914200081A
:1040F0009142000891420008CD5900089142000801
:10410000B974000809740008A972000859730008FE
:10411000000000000000000000000000000000009F
:10412000000000000000000000000000000000008F
:104130009142000891420008914200089142000813
:10414000000000000000000000000000000000006F
:1041500091420008914200080000000000000000A9
:1041600091420008914200089142000891420008E3
:1041700091420008914200089142000891420008D3
:1041800091420008914200089142000891420008C3
:1041900091420008914200089142000891420008B3
:1041A0009142000891420008DD540008E9540008DB
:1041B0009142000891420008914200089142000893
:1041C00000000000000000000000000000000000EF
:1041D0000000000000000000914200080000000004
:1041E000914200089142000800000000C18F0008C1
:1041F00000000000000000000000000000000000BF
:10420000DFF86CD01B4880471B4C1C4DAC4209DAD0
:1042100021686268A368043BA2BFC858D050FAE77F
:104220000C34F3E7164B174CA34208DA19685A68A6
:104230000020043AA4BF8850FBE70833F4E7124893
:10424000804712488047000044E3000C00C8FF1F6D
:104250003401000044E3000C00C8FF1F0000000010
:1042600034C9FF1FD80A000000000020000E000023
:1042700000C8FF1F81900008484200086042000803
:104280006042000870420008BDDE0008E9D4000862
:10429000FEE7000080B584B000AF78600B46FB708D
:1042A0000023FB73184B1B78022B05D9164B1B7888
:1042B0001648194601F0BAFBFB780233DAB2124B0A
:1042C0001A70124B11221A70104B55225A70FB7B38
:1042D0009A1C7B68591C796019780C4B9954FB7BAC
:1042E0000133FB73FB78013BFB70FB78002BEED1B5
:1042F000FB7B0233054A0021D154054B01221A7081
:104300001037BD4680BD00BF34C9FF1FECCDFF1F75
:104310002DCEFF1F80B582B000AF03460A46FB7169
:104320001346BB71114B1B78022B05D90F4B1B7821
:104330000F48194601F07AFB0C4B03221A700C4B04
:1043400011221A700A4AFB795370BB79002B03D0F3
:10435000074ABB79937002E0054B00229A70054B27
:1043600001221A700837BD4680BD00BF34C9FF1F47
:10437000ECCDFF1F2DCEFF1F80B584B000AF0346EC
:104380000A46FB711346BB71EF23FB73FB79552B78
:1043900034D1BB79AA2B31D100205521AA2200F0BB
:1043A000B7FC0020002100F0BBFB0120002100F041
:1043B000B7FB0220002100F0B3FB0320002100F036
:1043C000AFFB00F017FF01F043F803205521AA22AC
:1043D00000F0C4FC00200021002201F0D3F90020ED
:1043E0000021002201F02AFA00200021002201F021
:1043F00089FA01205521AA2200F08AFCFB7B18468D
:104400001037BD4680BD00BF80B592B000AFCC4B29
:104410001B7887F84730CA4B5B7887F8463097F8A7
:104420004730013B062B00F2148301A252F823F01F
:104430004D4400085B450008534A0008A1470008A6
:1044400001490008D7490008B346000897F84630EC
:10445000122B37D0122B04DC102B07D0112B13D0CA
:1044600075E0132B4CD0992B65D070E002233B7183
:1044700002237B710223BB710023FB713B1D184695
:104480000421FFF707FF67E0AD4B9978AC4BDA7872
:10449000AB4B1B79084611461A4600F05FFC0346F9
:1044A00087F8453097F84530002B06D097F845300F
:1044B00018460021FFF72EFF4EE055200021FFF7A0
:1044C00029FF49E09E4B99789D4BDA789C4B1B79EC
:1044D000084611461A4600F01BFC034687F8453093
:1044E00097F84530002B06D097F845301846002144
:1044F000FFF710FF30E055200021FFF70BFF2BE006
:104500008F4B9A788E4BDB7810461946FFF734FFB5
:10451000034687F8453097F84530002B06D097F8CA
:10452000453018460021FFF7F5FE15E05520002123
:10453000FFF7F0FE10E0834B834ADA62552000213A
:10454000FFF7E8FE814B4FF47A721A6004E0FA201C
:104550000021FFF7DFFE00BF80E297F84630413BC5
:104560000B2B00F2A08001A252F823F09D45000819
:10457000B1450008BF450008CD450008DB450008EF
:10458000F7450008E945000805460008A746000869
:10459000194600082F46000865460008684B9B78BE
:1045A000184600F0DFFC55200021FFF7B3FE7FE046
:1045B00000F01EFD55200021FFF7ACFE78E000F072
:1045C00021FD55200021FFF7A5FE71E000F026FD3A
:1045D00055200021FFF79EFE6AE000F02BFD5520DC
:1045E0000021FFF797FE63E000F0E6FC5520002174
:1045F000FFF790FE5CE000F0EDFC55200021FFF796
:1046000089FE55E04E4B9B78184600F01FFD552063
:104610000021FFF77FFE4BE0494B9B7818464C4941
:1046200000F06CFD55200021FFF774FE40E0444B84
:104630009A783B1D1046194600F0A4FD034687F802
:10464000443097F84430002B07D03A1D97F8443097
:1046500010461946FFF71EFE2AE066200021FFF7EC
:1046600059FE25E0364B9B781846394900F046FD47
:10467000334B9A783B1D1046194600F083FD0346E4
:1046800087F8443097F84430002B07D03A1D97F84C
:10469000443010461946FFF7FDFD09E06620002171
:1046A000FFF738FE04E0FA200021FFF733FE00BFD9
:1046B000D4E197F84630103B042B6BD801A252F896
:1046C00023F000BFD9460008F34600080947000858
:1046D0005547000869470008194B9A78184BDB7852
:1046E0001046194600F030FF55200021FFF712FE5A
:1046F00055E0134B9B781846154900F067FF55208D
:104700000021FFF707FE4AE00D4B9A783B1D10464B
:10471000194601F009F8034687F8443097F8443009
:10472000002B07D03A1D97F8443010461946FFF782
:10473000B1FD34E066200021FFF7ECFD2FE000BF63
:1047400030CEFF1F00400050FECA1508E8CDFF1F05
:1047500033CEFF1FC34B9B78184600F011FF552046
:104760000021FFF7D7FD1AE03B1D184600F0BCFF03
:10477000034687F8443097F84430002B05D03B1DA2
:1047800018460121FFF786FD09E066200021FFF7AA
:10479000C1FD04E0FA200021FFF7BCFD00BF5DE190
:1047A00097F84630303B082B00F2A48001A252F863
:1047B00023F000BF03480008D94700082D4800082F
:1047C000574800086B48000899480008AD480008A1
:1047D000C7480008E1480008A24B9A78A14BDB7853
:1047E0001046194600F04EF90346002B04D0F32082
:1047F0000021FFF78FFD82E055200021FFF78AFDA1
:104800007DE0984B9A78974BDB781046194600F07C
:1048100087F90346002B04D0F3200021FFF77AFD2F
:104820006DE055200021FFF775FD68E08D4B9B780A
:10483000184600F0CFF903463B713B79012B05D8B0
:104840003B1D18460121FFF725FD58E0F32000210C
:10485000FFF760FD53E03B1D184600F0EBF93B1DF0
:1048600018460221FFF716FD49E07E4B98787D4BF4
:10487000D9787C4B1A797B4B5B7900F0F3F90346CE
:10488000002B04D0F2200021FFF744FD37E0552033
:104890000021FFF73FFD32E000F00AFA03463B71CA
:1048A0003B1D18460121FFF7F5FC28E06D4B9A7877
:1048B0006C4BDB781046194600F002FA55200021B7
:1048C000FFF728FD1BE0674B9B78184600F00AFABB
:1048D00003463B713B1D18460121FFF7DBFC0EE050
:1048E00000F00EFA03463B713B1D18460121FFF70D
:1048F000D1FC04E0FA200021FFF70CFD00BFADE081
:1049000097F84630103B042B5FD801A252F823F0F1
:10491000254900083F490008554900088B4900080F
:104920009F4900084F4B9A784E4BDB78104619464A
:1049300000F0EEFD55200021FFF7ECFC4AE0494B6A
:104940009B781846484900F09BFE55200021FFF750
:10495000E1FC3FE0434B9A783B1D1046194600F0BE
:10496000E3FE034687F8443097F84430002B07D025
:104970003A1D97F8443010461946FFF78BFC29E0A2
:1049800066200021FFF7C6FC24E0364B9B781846D2
:1049900000F050FE55200021FFF7BCFC1AE03B1D43
:1049A000184600F0A1FE034687F8443097F84430DB
:1049B000002B05D03B1D18460121FFF76BFC09E0D9
:1049C00066200021FFF7A6FC04E0FA200021FFF793
:1049D000A1FC00BF42E097F84630112B23D0122BE8
:1049E00011D0102B2FD11F4B99781E4BDA781D4B0D
:1049F0001B79084611461A4600F0C4FE55200021D6
:104A0000FFF788FC24E0174B9978164BDA78154BA2
:104A10001B79084611461A4600F010FF5520002168
:104A2000FFF778FC14E00F4B99780E4BDA780D4BBA
:104A30001B79084611461A4600F064FF55200021F4
:104A4000FFF768FC04E0FA200021FFF763FC00BFD9
:104A500004E0FF200021FFF75DFC00BF4837BD46A2
:104A600080BD00BF30CEFF1F33CEFF1F80B500AF2B
:104A700001F076FD80BD00BF80B500AF01F07AFD8A
:104A800080BD00BF80B582B000AF03460A46FB710F
:104A90001346BB71FB79072B3CD801A252F823F0D7
:104AA000C14A0008CD4A0008D94A0008E54A000872
:104AB000154B0008F14A0008FD4A0008094B0008A0
:104AC000BB79184601F09AFE034624E0BB791846EC
:104AD00001F0B8FE03461EE0BB79184601F0D6FE91
:104AE000034618E0BB79184601F0F4FE034612E0D5
:104AF000BB79184601F012FF03460CE0BB7918465B
:104B000001F030FF034606E0BB79184601F04EFF86
:104B1000034600E0F32318460837BD4680BD00BFBA
:104B200080B582B000AF03460A46FB711346BB71E5
:104B3000FB79072B46D801A252F823F05D4B000801
:104B4000674B0008714B00087B4B0008854B000841
:104B5000954B0008A54B0008B54B0008BB791846DB
:104B600001F028FD30E0BB79184601F04DFD2BE047
:104B7000BB79184601F072FD26E0BB79184601F0BA
:104B800097FD21E0BB79002B02D101F0BBFD1BE0BA
:104B9000F3231AE0BB79012B02D101F0C3FD13E02E
:104BA000F32312E0BB79012B02D101F0CBFD0BE026
:104BB000F3230AE0BB79012B02D101F0D3FD03E01E
:104BC000F32302E0F32300E0002318460837BD4634
:104BD00080BD00BF80B582B000AF0346FB71FB799A
:104BE000042B21D801A252F823F000BF014C000889
:104BF000094C0008114C0008194C0008214C000811
:104C000001F0C0FD034611E001F0C8FD03460DE0D0
:104C100001F0D0FD034609E001F0D8FD034605E0B0
:104C200001F0E0FD034601E000BFF223184608371B
:104C3000BD4680BD80B584B000AF786001F0D4FA85
:104C40000346FB817B685A1C7A60FA89120A92B289
:104C5000D2B21A70FB89DAB27B681A701037BD467F
:104C600080BD00BF90B585B000AF04460846114630
:104C70001A462346FB710346BB710B467B711346F4
:104C80003B71BB799BB21B029AB27B799BB21344F6
:104C9000FB81F979FA893B79084611461A4601F0F9
:104CA000A9FE03467B737B7B18461437BD4690BD37
:104CB00080B500AF01F062FF0346184680BD00BF1B
:104CC00080B582B000AF03460A46FB711346BB7144
:104CD000FA79BB791046194601F08AFF0837BD46BC
:104CE00080BD00BF80B582B000AF0346FB71FB7989
:104CF000184602F033F8034618460837BD4680BD13
:104D000080B500AF02F086F80346184680BD00BFAC
:104D100080B584B000AF0346FB710B46BB711346F0
:104D20007B71F023FB73BB79552B11D17B79AA2BB7
:104D30000ED1FB79012B04D101F0EAFB0023FB73B8
:104D400006E0FB79002B03D101F0ECFB0023FB73A1
:104D5000FB7B18461037BD4680BD00BF80B584B0D0
:104D600000AF0346FB710B46BB7113467B71F0230A
:104D7000FB73BB79552B11D17B79AA2B0ED1FB7913
:104D8000032B04D101F0E2FB0023FB7306E0FB7967
:104D9000052B03D101F0D0FB0023FB73FB7B1846EE
:104DA0001037BD4680BD00BF80B483B000AF7860CF
:104DB0000B46FB701346BB70F878FB787A680633B5
:104DC0009B0013445B6823F00702BB781A437968A1
:104DD000831D9B000B445A600C37BD465DF8047B75
:104DE000704700BF80B483B000AF78607B684FF439
:104DF0008042C3F818210C37BD465DF8047B70472C
:104E000080B483B000AF78607B68D3F8143103F4CA
:104E1000FE031B0C18460C37BD465DF8047B70473B
:104E200080B485B000AFF860B9607A60FB685B69F8
:104E300023F05042BB681A437B681A43FB685A61EF
:104E40001437BD465DF8047B704700BF80B483B063
:104E500000AF78600B46FB707B681B6C23F00F0281
:104E6000FB781A437B681A640C37BD465DF8047BF7
:104E7000704700BF80B582B000AF786078680121CC
:104E8000FFF7E4FF0837BD4680BD00BF80B483B0A4
:104E900000AF78607B685B6B23F001027B685A632C
:104EA0000C37BD465DF8047B704700BF80B483B00B
:104EB00000AF78607B685B6B43F001027B685A63EC
:104EC0000C37BD465DF8047B704700BF80B483B0EB
:104ED00000AF78607B689B6C18460C37BD465DF868
:104EE000047B704780B483B000AF786039607B6822
:104EF000DA6C3B681A437B68DA640C37BD465DF8B0
:104F0000047B704780B584B000AFF860B9607A6008
:104F1000F868B9687A68FFF783FF1037BD4680BD2F
:104F200080B582B000AF78600B46FB701346BB7053
:104F3000F878FB787A6806339B0013445B6823F0AB
:104F4000500343F010027968831D9B000B445A60A4
:104F5000FA78BB78786811461A46FFF725FF0837BC
:104F6000BD4680BD80B582B000AF0346FB71FB79C2
:104F70000E4A02FB03F30E48194605F0E5F90D4809
:104F80000521902205F02AF90A480021902205F017
:104F900025F908480121902205F020F9054804214F
:104FA000002205F01BF90837BD4680BDA086010030
:104FB000000003400081024880B500AF0348FFF7BE
:104FC00075FF034B00221A7080BD00BF0000034034
:104FD00035C9FF1F80B500AF0348FFF757FF034BEC
:104FE00001221A7080BD00BF0000034035C9FF1FB9
:104FF00080B500AF024800210022FFF783FF80BD8B
:105000000000034080B500AF03484FF0004100228C
:10501000FFF778FF80BD00BF0000034080B500AF00
:1050200003484FF040410022FFF76CFF80BD00BFF6
:105030000000034080B500AF03484FF080410022DC
:10504000FFF760FF80BD00BF0000034080B483B065
:1050500000AF0346FB71FB79DB08DAB2034B1A7031
:105060000C37BD465DF8047B704700BF08C8FF1FC2
:1050700080B485B000AF03463960FB710023FB7339
:1050800030E01D4B1B78042B0DD13B685B78BB7364
:105090003B689B787B733B6801337A7B1A703B6873
:1050A0000233BA7B1A703B681B78BB73124B1B78B8
:1050B000013B3A6813441B787B733B687A7B1A7018
:1050C0000D4B1B78013B3A681344BA7B1A700A4BAC
:1050D0001B781A463B6813443B60074B1A78FB7BEE
:1050E0001344FB73FA7BFB799A42CAD31437BD464B
:1050F0005DF8047B704700BF08C8FF1F80B584B00F
:1051000000AF03463960FB711C48FFF76BFE1C4B78
:105110001B78002B04D0FB7918463968FFF7A8FFED
:1051200016484FF4803105F02DF90023FB731AE087
:105130003B685A1C3A601B789BB210481946002203
:1051400005F048F900BF0D48FFF7C0FE034603F421
:105150008053002BF7D009484FF48051FFF7C2FE6F
:10516000FB7B0133FB73FA7BFB799A42E0D3034864
:1051700005F01EF91037BD4680BD00BF000003409A
:1051800035C9FF1F90B585B000AF03463960FB718C
:105190000023BB733B68BB600023FB7314E0134820
:1051A000FFF72EFE0346002B0BD03C68631C3B60D0
:1051B0000E4805F045F90346DBB22370BB7B013393
:1051C000BB73FB7B0133FB73FA7BFB799A42E6D31B
:1051D000074B1B78002B04D0FB791846B968FFF702
:1051E00047FFBB7B18461437BD4690BD0000034007
:1051F00035C9FF1F80B500AF19481A4905F070F88E
:105200001748FFF737FEFFF7E5FEFFF7F1FE102026
:10521000FFF71CFF124800210122FFF781FE124810
:105220000521902204F0DAFF0F480021902204F0BB
:10523000D5FF0D480121902204F0D0FF0A48042137
:10524000002204F0CBFF064800210522202307F0AE
:1052500085F8034820210522202307F0A7F880BD08
:105260000000034000C8FF1F0081024880B483B0E3
:1052700000AF0346FB7197F90730002B0BDB0849A1
:1052800097F907305B09FA7902F01F02012000FA52
:1052900002F241F823200C37BD465DF8047B7047CD
:1052A00000E100E080B483B000AF03463960FB71D9
:1052B00097F90730002B0ADB0D4997F907303A6858
:1052C000D2B29200D2B20B4483F800230AE009491B
:1052D000FB7903F00F03043B3A68D2B29200D2B2DA
:1052E0000B441A760C37BD465DF8047B704700BF4F
:1052F00000E100E000ED00E080B483B000AF786032
:105300000B46FB701346BB70F878FB787A6806335F
:105310009B0013445B6823F00702BB781A4379684B
:10532000831D9B000B445A600C37BD465DF8047B1F
:10533000704700BF80B483B000AF78607B68D3F85B
:10534000143103F48053002B14BF01230023DBB27C
:1053500018460C37BD465DF8047B704780B483B0B7
:1053600000AF78607B68D3F8143103F40063002B3E
:1053700014BF01230023DBB218460C37BD465DF88D
:10538000047B704780B483B000AF786039607B687D
:10539000D3F80C213B681A437B68C3F80C210C3707
:1053A000BD465DF8047B704780B483B000AF786081
:1053B0007B684FF48042C3F818210C37BD465DF876
:1053C000047B704780B483B000AF78607B68D3F80B
:1053D000143103F00803002B14BF01230023DBB2B8
:1053E00018460C37BD465DF8047B704780B483B027
:1053F00000AF78607B681B6C23F00F0343F0020260
:105400007B681A640C37BD465DF8047B704700BFAB
:1054100080B582B000AF78600B46FB701346BB705E
:10542000F878FB787A6806339B0013445B6823F0B6
:1054300050027968831D9B000B445A60FA78BB7850
:10544000786811461A46FFF757FF0837BD4680BDFA
:1054500080B500AF1C481D4905F02AF81A48002104
:105460000022002306F07AFF1748002105220023BE
:1054700006F09CFF14484FF0C041FFF783FF12482D
:105480001021012206F0BCFF0F481321012206F073
:10549000B7FF0D48FFF7AAFF0B4800210322FFF7D3
:1054A000B7FF0B4801210B4A03F06EFE08480021AC
:1054B000094A03F069FE5B203E21FFF7F3FE5B2003
:1054C000FFF7D4FE80BD00BF000202480CC8FF1FDA
:1054D0000080024818C8FF1F38C9FF1F80B400AF02
:1054E000BD465DF8047B704780B500AF064B1B7866
:1054F000002B08D0044B1B78013BDAB2024B1A7028
:10550000024805F073F880BD44C9FF1F000202483D
:1055100080B582B000AF03460A46FB711346BB71EB
:10552000FB791A02BB7913441A4613469B001344B5
:105530005B0004481946102205F010F80837BD46F4
:1055400080BD00BF0002024880B582B000AF0346B4
:105550000A46FB711346BB71FB791A02BB791344EF
:105560001A4613469B0013445B0004481946102258
:1055700004F0F4FF0837BD4680BD00BF00020248BA
:1055800080B582B000AF0346FB71FFF775FA0E4895
:10559000FFF70AFF00BF0C48FFF7CCFE0346002BC5
:1055A000F9D1FB799BB20848194604F0F9FF00BF16
:1055B0000548FFF7D3FE034683F00103DBB2002B5F
:1055C000F6D10837BD4680BD0002024880B584B0E0
:1055D00000AF03463960FB71FFF74EFA1448FFF73E
:1055E000E3FE0023FB7312E000BF1148FFF7A2FEA9
:1055F0000346002BF9D13B685A1C3A601B789BB2DA
:105600000B48194604F0CCFFFB7B0133FB73FA7B9C
:10561000FB799A42E8D300BF0548FFF79FFE034697
:1056200083F00103DBB2002BF6D11037BD4680BDFD
:105630000002024880B582B000AF0346FB71FFF75D
:1056400015FA0D48FFF7B0FE0C4B01221A7000BF8F
:105650000948FFF76FFE0346002BF9D1FB799BB297
:105660000548194604F09CFF00BF044B1B78002B33
:10567000FBD10837BD4680BD0002024844C9FF1F68
:1056800080B584B000AF03463960FB71FFF7EEF9D7
:105690001348FFF789FE134AFB7913700023FB734D
:1056A00012E000BF0E48FFF745FE0346002BF9D17C
:1056B0003B685A1C3A601B789BB20948194604F0B3
:1056C0006FFFFB7B0133FB73FA7BFB799A42E8D3D4
:1056D00000BF044B1B78002BFBD11037BD4680BDAB
:1056E0000002024844C9FF1F80B584B000AF786053
:1056F0000023FB730B48FFF765FE034683F00103AD
:10570000DBB2002B09D0074804F070FF0346DAB281
:105710007B681A70FB7B0133FB73FB7B18461037E9
:10572000BD4680BD0002024890B585B000AF03467B
:105730003960FB710023BB730023FB7317E0104833
:10574000FFF740FE034683F00103DBB2002B0BD0D2
:105750003C68631C3B600A4804F048FF0346DBB228
:105760002370BB7B0133BB73FB7B0133FB73FA7B81
:10577000FB799A42E3D3BB7B18461437BD4690BDF4
:105780000002024880B582B000AF0346FB710B46B1
:10579000BB7113467B71FB79012B11D10D4807F0CA
:1057A000A7FBBB791A027B7913440A48194601F01A
:1057B00027FD084807F070FB074B01221A7005E02F
:1057C000044807F095FB044B00221A700837BD46C9
:1057D00080BD00BFECC8FF1F73CEFF1F80B584B033
:1057E00000AF00233B7303237B7300233B728323AF
:1057F0007B72114B1B78002B1AD007F10C0302208F
:105800001946FFF77BFC3B1D02201946FFF7BAFC47
:105810003B793B7207F1080302201946FFF76EFC43
:105820003B1D02201946FFF7ADFC034B00221A7006
:105830001037BD4680BD00BF45C9FF1F80B582B08F
:1058400000AF0346FB710B46BB7113467B71FB79BE
:10585000012B11D10D4807F04BFBBB791A027B7964
:1058600013440A48194601F0CBFC084807F014FB22
:10587000074B01221A7005E0044807F039FB044B7E
:1058800000221A700837BD4680BD00BFECC8FF1F5C
:1058900071CEFF1F80B584B000AF174A07F10C032B
:1058A00010681860154A07F1080310681860144B57
:1058B0001B78002B1CD007F10C0304201946FFF7BE
:1058C0001DFC3B1D04201946FFF75CFC7B797B72B5
:1058D000BB79BB7207F1080304201946FFF70EFCE1
:1058E0003B1D04201946FFF74DFC054B00221A70A2
:1058F0001037BD4680BD00BF50DF000854DF0008F0
:1059000046C9FF1F80B582B000AF0346FB710B464E
:10591000BB7113467B71FB79012B11D10D4807F048
:10592000E7FABB791A027B7913440A48194601F059
:1059300067FC084807F0B0FA074B01221A7005E02F
:10594000044807F0D5FA044B00221A700837BD4608
:1059500080BD00BFECC8FF1F72CEFF1F80B584B0B2
:1059600000AFC0233B7300237B730023BB73C123B1
:105970003B7200237B720023BB72134B1B78002BFE
:105980001FD007F10C0303201946FFF7B7FB3B1D9F
:1059900003201946FFF7F6FB7B797B72BB7983F016
:1059A0000103DBB2BB7207F1080303201946FFF7BE
:1059B000A5FB3B1D03201946FFF7E4FB024B002229
:1059C0001A701037BD4680BD47C9FF1F80B400AFB5
:1059D000064B01221A70064B01221A70054B012258
:1059E0001A70BD465DF8047B704700BF45C9FF1FB4
:1059F00046C9FF1F47C9FF1F80B485B000AFF860DC
:105A0000B9601346FB71BB685A1CBA60FA68511C36
:105A1000F96012781A70FB795A1EFA71002BF2D1D4
:105A20001437BD465DF8047B704700BF80B483B077
:105A300000AF78600B46FB70FB78402B01D9402308
:105A4000FB707B685A1C7A6000221A70FB785A1E21
:105A5000FA70002BF5D10C37BD465DF8047B70471A
:105A600080B584B000AFF860B9603B601346FB714D
:105A70000C4B1B78012B0CD10B4839684022FFF7E7
:105A8000BBFF084B00221A70BB6940221A80012319
:105A900004E038684021FFF7C9FF0023184610379B
:105AA000BD4680BD2DCEFF1FECCDFF1F80B586B05B
:105AB00000AFF8607B600B46FB721346BB727B68DD
:105AC0007B613B8C002B09D03B8CDBB278690549AC
:105AD0001A46FFF791FF044B01221A701837BD4692
:105AE00080BD00BF30CEFF1F2CCEFF1F80B400AFA3
:105AF000044BDB6803F4E0631B0A1846BD465DF8FF
:105B0000047B704700ED00E080B483B000AF034633
:105B10003960FB7197F90730002B0ADB0D4997F9C3
:105B200007303A68D2B29200D2B20B4483F8002315
:105B30000AE00949FB7903F00F03043B3A68D2B24B
:105B40009200D2B20B441A760C37BD465DF8047B46
:105B5000704700BF00E100E000ED00E080B489B0D4
:105B600000AFF860B9607A60FB6803F00703FB617F
:105B7000FB69C3F10703062B28BF0623BB61FB6942
:105B80000633062B02D9FB69013B00E000237B6151
:105B9000BB69012202FA03F35A1EBB681A407B69F3
:105BA0009A407B69012101FA03F3591E7B680B407F
:105BB000134318462437BD465DF8047B704700BF89
:105BC00080B582B000AF78607B68013BB3F1807F25
:105BD00001D301230FE00A4A7B68013B53604FF079
:105BE000FF303F21FFF790FF054B00229A60044BE6
:105BF00007221A60002318460837BD4680BD00BF43
:105C000010E000E080B487B000AF7860514A7B6854
:105C10005B01134408331B68FB604F4B1B68002B70
:105C200006D17B685B014B4A13444B4A13608CE0FE
:105C3000494B1B687B61FB683B6182E07B699B6829
:105C40001A463B699B1A3B613B69002B5ADA7B6918
:105C5000DB69002B1CD07B69DB697A6852013D4906
:105C60000A449A617B69DA693A497B685B010B44B3
:105C700018335A60374A7B685B01134418337A69DA
:105C80001A607B685B01334A1A447B69DA6114E06D
:105C9000314B1A682F497B685B010B4418331A603B
:105CA0002D4B1B687A6852012A490A44DA617B68E5
:105CB0005B01284A1344284A1360264A7B685B012B
:105CC000134418331B689A683B691A4421497B685E
:105CD0005B010B4408331A601E4A7B685B01134466
:105CE00018331B681B497A6852010A44183212683B
:105CF000916818487A6852010244083212688A1A78
:105D00009A6022E03B69002B18DB7B699B69002BC2
:105D100014D1104A7B685B01134418337A695A60C6
:105D20007B685B010B4A1A447B699A613A690949AD
:105D30007B685B010B4408331A6006E07B699B6952
:105D40007B617B69002B7FF479AF1C37BD465DF822
:105D5000047B704748C9FF1F48CDFF1F80B485B042
:105D600000AF78607B685B01284A1344FB60FB68E6
:105D7000DB69002B07D1FB689B69002B03D1244B07
:105D800000221A603DE0FB68DB69002B14D1FB6840
:105D90009B691F4A13601E4B1B680022DA61FB6877
:105DA0009B69FA6892699168FA6892680A449A60F5
:105DB000FB6800229A6124E0FB689B69002B07D1F5
:105DC000FB68DB6900229A61FB680022DA6118E057
:105DD000FB68DB69FA6892699A61FB689B69FA68FB
:105DE000D269DA61FB689B69FA6892699168FA681E
:105DF00092680A449A60FB6800229A61FB6800225C
:105E0000DA611437BD465DF8047B704748C9FF1F4F
:105E100048CDFF1F80B582B000AF1F4B1B687B6071
:105E20002FE07B681B79002B0ED17B681B6818461E
:105E3000FFF794FF7B6801225A717B681B697A68BF
:105E400052691046984719E07B681B79012B14D1E1
:105E50007B681B681846FFF781FF7B68DA687B6800
:105E60009A607B681B681846FFF7CCFE7B681B694D
:105E70007A6852691046984700E009E0064B1B68B3
:105E80007B607B68002B03D07B689B68002BC8D0AD
:105E90000837BD4680BD00BF48CDFF1F80B582B02A
:105EA00000AF124B1B687B60114B1B88B3F57A7FE8
:105EB00002D90F4B00221A800D4B1B8801339AB276
:105EC0000B4B1A807B68002B00D10BE07B689B6832
:105ED000002B05D07B689B685A1E7B689A6001E0A6
:105EE000FFF798FF0837BD4680BD00BF48CDFF1FB4
:105EF00050CDFF1F80B500AF4EF66020FFF760FE6B
:105F00000A4B00221A60FFF7F1FD034618460A21EA
:105F10000022FFF723FE03464FF0FF301946FFF73C
:105F2000F3FD034B00221A6080BD00BF48CDFF1F68
:105F30004CCDFF1F80B489B000AFF8607A603B6041
:105F40000B46FB720023FB610023BB6100237B61D6
:105F5000FB7A002B04D0FB7A012B01D001237B615B
:105F6000FB68002B01D101237B61FB68002B01D171
:105F700001237B617B68002B01D101237B617B695D
:105F8000002B5AD10023BB6154E02F4B1A68BB6928
:105F900022FA03F303F00103002B48D1BB6901226D
:105FA0009A40294B1B681343274A1360274ABB6951
:105FB0005B011344BA691A60244ABB695B0113444C
:105FC000FA7A1A71214ABB695B01134401225A71A2
:105FD000FB685A1C1D49BB695B010B4408331A60FE
:105FE0001A4ABB695B0113440833FA685A60174ABE
:105FF000BB695B01134410337A681A60134ABB69AA
:106000005B01134410333A685A60104ABB695B0164
:106010001344183300225A600C4ABB695B011344D5
:10602000183300221A60BB690133FB6105E0BB69CC
:106030000133BB61BB691F2BA7D9FB691846243705
:10604000BD465DF8047B70474CCDFF1F48C9FF1F5C
:1060500080B584B000AF78600023FB607B68202BA4
:1060600001D90123FB60194B1B687A68013AD340C0
:1060700003F00103002B01D10123FB607B68013B8E
:10608000134A5B01134408331B68002B01D1012321
:10609000FB60FB68002B13D17B68013B0C4A5B0162
:1060A00013445B79002B0BD07B68013B084A5B01F2
:1060B000134400225A717B68013B1846FFF7A2FD8A
:1060C000FB6818461037BD4680BD00BF4CCDFF1F92
:1060D00048C9FF1F80B483B000AF78607B68D3F8F5
:1060E000043243F010027B68C3F804220C37BD462B
:1060F0005DF8047B704700BF80B483B000AF786068
:106100007B68D3F8043243F400727B68C3F804223E
:106110000C37BD465DF8047B704700BF80B485B086
:1061200000AFF860B9607A60FB68BA68603253F813
:1061300022207B68012101FA03F342EA0301FB6894
:10614000BA68603243F822101437BD465DF8047B0C
:10615000704700BF80B483B000AF786039607B685F
:106160003A68C03253F822309BB218460C37BD460D
:106170005DF8047B704700BF80B500AF4FF0402052
:10618000134906F0EBF91348134906F041FA114898
:10619000032106F0CDFA4FF0402006F009FA4FF047
:1061A00040200E4906F0E0FA0A4800210C4A06F0A9
:1061B00059FB4FF0402001210022FFF7AFFF4FF0C5
:1061C0004020FFF787FF4FF04020FFF795FF80BD8D
:1061D00058DF00080048004070DF000884DF000836
:1061E00090DF00080000000080B584B000AF1248C6
:1061F0000021FFF7AFFF0346FB81FB89184607F03C
:106200002DFB02460B461046194609A3D3E900238D
:1062100007F09AFB02460B46C7E90023D7E90001C5
:1062200007F02CFE03469BB218461037BD4680BDD2
:10623000841266DAFE55134000480040AFF3008038
:1062400080B483B000AF78600B46FB70FB7801220E
:106250009A407B685A600C37BD465DF8047B7047F6
:1062600080B483B000AF78600B46FB70FB784FF4CE
:1062700080329A407B685A600C37BD465DF8047BDB
:10628000704700BF80B483B000AF78600B46FB70EE
:10629000FB784FF001129A407B685A600C37BD467C
:1062A0005DF8047B704700BF80B483B000AF7860B6
:1062B0000B46FB707B685A6AFB7822FA03F303F003
:1062C000010318460C37BD465DF8047B704700BFDC
:1062D00080B483B000AF78600B46FB707B68DA68EF
:1062E000FB78012101FA03F31A437B68DA600C376B
:1062F000BD465DF8047B704780B483B000AF786022
:106300000B46FB707B68D3F8A420FB78012101FACF
:1063100003F31A437B68C3F8A4200C37BD465DF82D
:10632000047B704780B483B000AF78600B46FB708D
:106330007B68D3F8A420FB78012101FA03F3DB4347
:106340001A407B68C3F8A4200C37BD465DF8047B77
:10635000704700BF80B483B000AF78600B46FB701D
:106360007B68D3F8B020FB78012101FA03F31A43CC
:106370007B68C3F8B0200C37BD465DF8047B7047DE
:1063800080B483B000AF78600B46FB707B68D3F8B5
:10639000A020FB7822FA03F303F00103002B14BFC3
:1063A00001230023DBB218460C37BD465DF8047BA1
:1063B000704700BF80B500AF3B4B00225A673A4898
:1063C0000821FFF74DFF38480821802203F006FF1F
:1063D00036480221002203F001FF34480321002245
:1063E00003F0FCFE31480421002203F0F7FE2F48A1
:1063F0000521002203F0F2FE2B480221FFF730FFB7
:1064000029480221802203F0E9FE27480321FFF7F3
:1064100027FF25480321802203F0E0FE24480321C2
:10642000FFF71EFF22480321802203F0D7FE2048F9
:106430000221FFF715FF1E480221802203F0CEFE45
:1064400019480721FFF7FCFE17480721802203F0B7
:10645000C5FE15480621FFF703FF134806218022D9
:1064600003F0BCFE11480021FFF7FAFE0F4800219F
:10647000802203F0B3FE0C480121FFF7E1FE0A4839
:106480000121802203F0AAFE08480121002203F026
:10649000E5FE06480121FFF7D3FE044801218022D2
:1064A00003F09CFE80BD00BF0080024800820248CD
:1064B0000081024880B500AF09480421FFF7C0FE03
:1064C00007480421802203F089FE05480521FFF7D3
:1064D000B7FE03480521802203F080FE80BD00BF87
:1064E0000080024880B582B000AF0346FB71FB79A3
:1064F000002B04D105480521FFF7C4FE03E0034843
:106500000421FFF7BFFE0837BD4680BD008002486A
:1065100080B500AF02480721FFF792FE80BD00BFA3
:106520000080024880B500AF02480721FFF798FEBF
:1065300080BD00BF0080024880B500AF024808213E
:10654000FFF77EFE80BD00BF0080024880B500AF2F
:1065500002480821FFF784FE80BD00BF008002488A
:1065600080B500AF02480121FFF76AFE80BD00BF81
:106570000082024880B500AF02480121FFF770FE9B
:1065800080BD00BF0082024880B582B000AF0346E4
:10659000FB71FB79002B04D105480021FFF760FE59
:1065A00003E003480021FFF74BFE0837BD4680BDDE
:1065B0000082024880B582B000AF0346FB71002024
:1065C00000F08AFCFB79002B09D10C480421002241
:1065D00003F004FE0A480221FFF742FE08E00848E3
:1065E0000221FFF72DFE05480421802203F0F6FD6D
:1065F000044AFB7913700837BD4680BD008202480B
:106600000080024852CDFF1F80B582B000AF034624
:10661000FB71012000F060FCFB79002B09D10C48D4
:106620000521002203F0DAFD0A480321FFF718FED6
:1066300008E008480321FFF703FE054805218022F2
:1066400003F0CCFD044AFB7913700837BD4680BDCA
:10665000008202480080024853CDFF1F80B582B0FF
:1066600000AF0346FB71022000F036FCFB79002BE3
:1066700009D10C480221002203F0B0FD0A48032191
:10668000FFF7EEFD08E008480321FFF7D9FD0548B4
:106690000221802203F0A2FD044AFB79137008371F
:1066A000BD4680BD008202480081024854CDFF1FD4
:1066B00080B582B000AF0346FB71032000F00CFCF4
:1066C000FB79002B09D10C480321002203F086FD41
:1066D0000A480221FFF7C4FD08E008480221FFF73D
:1066E000AFFD05480321802203F078FD044AFB79C1
:1066F00013700837BD4680BD008202480081024801
:1067000055CDFF1F80B500AF04480421002203F0DF
:1067100065FD034B00221A7080BD00BF0081024856
:1067200056CDFF1F80B500AF04480521802203F03D
:1067300055FD034B01221A7080BD00BF0081024845
:1067400057CDFF1F80B500AF04480021802203F021
:1067500045FD034B01221A7080BD00BF0081024835
:1067600058CDFF1F80B500AF04480121802203F0FF
:1067700035FD034B01221A7080BD00BF0081024825
:1067800059CDFF1F80B500AF03480421FFF78CFDF2
:106790000346DBB2184680BD0082024880B500AFD8
:1067A00003480521FFF780FD0346DBB2184680BD94
:1067B0000082024880B500AF03480221FFF774FD54
:1067C0000346DBB2184680BD0082024880B500AFA8
:1067D00003480321FFF768FD0346DBB2184680BD7E
:1067E0000082024880B500AF03480421FFF75CFD3A
:1067F0000346DBB2184680BD0081024880B584B0F4
:1068000000AF0346FB710023FB730C4B1B78012B7D
:1068100002D0F323FB730BE0FB79002B04D1084873
:106820000421FFF71DFD03E005480421FFF708FDE3
:10683000FB7B18461037BD4680BD00BF52CDFF1F01
:106840000082024880B584B000AF0346FB7100238C
:10685000FB730C4B1B78012B02D0F323FB730BE073
:10686000FB79002B04D108480521FFF7F9FC03E070
:1068700005480521FFF7E4FCFB7B18461037BD46B1
:1068800080BD00BF53CDFF1F0082024880B584B099
:1068900000AF0346FB710023FB730C4B1B78012BED
:1068A00002D0F323FB730BE0FB79002B04D10848E3
:1068B0000221FFF7D5FC03E005480221FFF7C0FCE9
:1068C000FB7B18461037BD4680BD00BF54CDFF1F6F
:1068D0000082024880B584B000AF0346FB710023FC
:1068E000FB730C4B1B78012B02D0F323FB730BE0E3
:1068F000FB79002B04D108480321FFF7B1FC03E02A
:1069000005480321FFF79CFCFB7B18461037BD466A
:1069100080BD00BF55CDFF1F0082024880B584B006
:1069200000AF0346FB710023FB730C4B1B78012B5C
:1069300002D0F323FB730BE0FB79002B04D1084852
:106940000521FFF78DFC03E005480521FFF778FCE2
:10695000FB7B18461037BD4680BD00BF57CDFF1FDB
:106960000081024880B584B000AF0346FB7100236C
:10697000FB730C4B1B78012B02D0F323FB730BE052
:10698000FB79002B04D108480021FFF769FC03E0E4
:1069900005480021FFF754FCFB7B18461037BD4625
:1069A00080BD00BF58CDFF1F0081024880B584B074
:1069B00000AF0346FB710023FB730C4B1B78012BCC
:1069C00002D0F323FB730BE0FB79002B04D10848C2
:1069D0000121FFF745FC03E005480121FFF730FCEA
:1069E000FB7B18461037BD4680BD00BF59CDFF1F49
:1069F0000081024880B584B000AF0346FB710B46AE
:106A0000BB801346BB710023FB73FB79184600F073
:106A100063FAFB79032B00F2978001A252F823F06E
:106A2000316A0008776A0008BD6A0008036B000835
:106A3000494806F05DFABB88002B03D10020FFF720
:106A4000B9FD84E00120FFF7B5FD444804219822F8
:106A500003F0C4FB4248002103F04AFBB988BB792C
:106A6000642202FB03F33C481A4600F06DFB3A48EF
:106A700006F012FA6BE03B4806F03AFABB88002BAE
:106A800003D10020FFF7C0FD61E00120FFF7BCFD4E
:106A900032480521982203F0A1FB3348002103F07E
:106AA00027FBB988BB79642202FB03F32D481A4601
:106AB00000F04AFB2B4806F0EFF948E02B4806F0BF
:106AC00017FABB88002B03D10020FFF7C7FD3EE07B
:106AD0000120FFF7C3FD21480221982203F07EFB2D
:106AE0002348002103F004FBB988BB79642202FB30
:106AF00003F31E481A4600F027FB1C4806F0CCF9A9
:106B000025E01C4806F0F4F9BB88002B03D10020D7
:106B1000FFF7CEFD1BE00120FFF7CAFD0F48032160
:106B2000982203F05BFB1448002103F0E1FAB988D6
:106B3000BB79642202FB03F30E481A4600F004FB03
:106B40000C4806F0A9F902E0F223FB7300BFFB7BBF
:106B500018461037BD4680BD4CC8FF1F0082024852
:106B60000002014074C8FF1F000101409CC8FF1FC4
:106B700000040140C4C8FF1F0003014080B582B07B
:106B800000AF19480421FFF78FFB0346FB7116483D
:106B90000521FFF789FB03465B00DAB2FB7913435B
:106BA000FB7111480221FFF77FFB03469B00DAB21D
:106BB000FB791343FB710C480321FFF775FB034678
:106BC000DB00DAB2FB791343FB7108480421FFF7BD
:106BD0006BFB03461B01DAB2FB791343FB71FB79B4
:106BE00018460837BD4680BD008202480081024831
:106BF00080B582B000AF03460A46FB711346BB71F5
:106C0000FB79032B00F28C8001A252F823F000BF25
:106C1000216C0008616C0008A16C0008E16C0008A0
:106C200041480421002203F0D9FA40480221FFF72D
:106C300017FB3F480021FFF775FBBB79642202FB7D
:106C400003F33C48194600F0DBFAFB79184600F0E4
:106C5000D1F9394B01221A70384B00221A7060E0CA
:106C600031480521002203F0B9FA30480321FFF72B
:106C7000F7FA33480021FFF755FBBB79642202FB8A
:106C800003F33048194600F0BBFAFB79184600F0D0
:106C9000B1F9294B01225A70284B00225A7040E06A
:106CA00021480221002203F099FA27480321FFF727
:106CB000D7FA26480021FFF735FBBB79642202FB97
:106CC00003F32348194600F09BFAFB79184600F0BD
:106CD00091F9194B01229A70184B00229A7020E00A
:106CE00011480321002203F079FA17480221FFF727
:106CF000B7FA18480021FFF715FBBB79642202FBA5
:106D000003F31548194600F07BFAFB79184600F0AA
:106D100071F9094B0122DA70084B0022DA7000E0A9
:106D200000BF0837BD4680BD00820248008002488F
:106D3000000201404CC8FF1F5CCDFF1F64CDFF1F48
:106D40000001014074C8FF1F008102480004014097
:106D50009CC8FF1F00030140C4C8FF1F80B584B05A
:106D600000AF0346FB71FB79032B47D801A252F811
:106D700023F000BF856D0008A36D0008C16D0008F9
:106D8000DF6D0008204B1B78002B03D01F4B1B78B6
:106D9000FB7334E01E480421FFF786FA0346FB73B9
:106DA0002DE0194B5B78002B03D0184B5B78FB73FD
:106DB00025E017480521FFF777FA0346FB731EE02D
:106DC000114B9B78002B03D0104B9B78FB7316E084
:106DD0000F480221FFF768FA0346FB730FE00A4BE6
:106DE000DB78002B03D0094BDB78FB7307E0084806
:106DF0000321FFF759FA0346FB7300E000BFFB7B5A
:106E000018461037BD4680BD64CDFF1F60CDFF1F03
:106E10000082024880B582B000AF2C4B1B78002B5B
:106E200003D02B4B1B78FB7105E02A480421FFF7A8
:106E30003BFA0346FB71254B5B78002B08D0244BB3
:106E40005B785B00DAB2FB791343DBB2FB7109E0DC
:106E500020480521FFF728FA03465B00DAB2FB79E8
:106E60001343FB71194B9B78002B08D0184B9B7870
:106E70009B00DAB2FB791343DBB2FB7109E01548E2
:106E80000221FFF711FA03469B00DAB2FB791343A4
:106E9000FB710E4BDB78002B08D00D4BDB78DB0051
:106EA000DAB2FB791343DBB2FB7109E00948032135
:106EB000FFF7FAF90346DB00DAB2FB791343FB7103
:106EC000FB7918460837BD4680BD00BF64CDFF1F63
:106ED00060CDFF1F0082024880B584B000AF03463A
:106EE000FB710023FB73FB79032B6BD801A252F8D3
:106EF00023F000BF056F0008356F0008656F0008BC
:106F0000956F000833480121FFF7E2F9324800216C
:106F1000FFF708FA30480821FFF704FA2E4801214C
:106F20002E4A03F053F82E4B00221A702D4B0022EC
:106F30001A704AE027480021FFF7CAF92A480021C1
:106F4000FFF7F0F928480821FFF7ECF9264801215E
:106F5000224A03F03BF8224B00225A70214B0022B8
:106F60005A7032E01B480321FFF7B2F91F48002195
:106F7000FFF7D8F91D480821FFF7D4F91B48012174
:106F8000164A03F023F8164B00229A70154B002284
:106F90009A701AE00F480221FFF79AF9144800216D
:106FA000FFF7C0F912480821FFF7BCF9104801218A
:106FB0000A4A03F00BF80A4B0022DA70094B002250
:106FC000DA7002E0F223FB7300BFFB7B1846103738
:106FD000BD4680BD0000014000020140A4DF000862
:106FE0005CCDFF1F64CDFF1F000101400004014084
:106FF0000003014080B584B000AF0346FB7100235D
:10700000FB73FB79032B00F28B8001A252F823F073
:107010002170000861700008A1700008E17000088C
:1070200043480821FFF796F941480021FFF792F9FC
:107030003F480121002203F033F83D4801213D4A39
:1070400002F0C4FF3A480121012202F009FE38484B
:107050000821FFF751F938480121FFF739F962E0BB
:1070600036480821FFF776F934480021FFF772F916
:1070700032480121002203F013F8304801212D4A43
:1070800002F0A4FF2D480121012202F0E9FD2B4866
:107090000821FFF731F928480021FFF719F942E0EC
:1070A00027480821FFF756F925480021FFF752F934
:1070B00023480121002202F0F3FF214801211D4A4B
:1070C00002F084FF1E480121012202F0C9FD1C4884
:1070D0000821FFF711F918480321FFF7F9F822E01A
:1070E00018480821FFF736F916480021FFF732F952
:1070F00014480121002202F0D3FF124801210D4A59
:1071000002F064FF0F480121012202F0A9FD0D48A1
:107110000821FFF7F1F808480221FFF7D9F802E04B
:10712000F223FB7300BFFB7B18461037BD4680BDC2
:1071300000020140A0DF0008000001400001014002
:107140000004014000030140B0B586B000AFF86014
:10715000B9607A600023FB7502E0FB7D0133FB75AB
:10716000B86806F07BFB04460D46FB7D012202FA5F
:1071700003F3184606F082FB02460B4610461946FA
:107180001CA3D3E9002306F0DFFB02460B46204692
:10719000294606F0D9FB02460B464FF00000144981
:1071A00006F0FCFC02460B46104619460EA3D3E936
:1071B000002306F059FE0346002BCED1FB689A68E7
:1071C000FB7D1046194602F093FFFB7DBA6802FA78
:1071D00003F33B61F86839697A6805F0A7FE183750
:1071E000BD46B0BDAFF3008000000000E0FFEF40FF
:1071F0000000F03F48AFBC9AF2D74A3EAFF30080A0
:1072000080B584B000AF786039600023FB7302E082
:10721000FB7B0133FB733B6807EE903AB8EE677A6D
:10722000FB7B012202FA03F307EE903AF8EEE77ACD
:10723000DFED1A6A67EEA67AC7EE277A9FED187A15
:10724000F4EEC77AF1EE10FAE2DC7B689A68FB7B19
:107250001046194602F04CFF3B6807EE903AF8EEF4
:10726000677A9FED107A87EE277AFB7B012202FA7C
:1072700003F307EE903AF8EEE77A67EE277AFCEE32
:10728000E77A17EE903ABB607868B96841F28832C5
:1072900005F04CFE1037BD4680BD00BF17B7513713
:1072A00000FF7F4700007A4480B500AF234B1B7876
:1072B000012B3AD1224B1B78012B17D121480021F9
:1072C000FFF75EF80346002B2FD01E480021FFF782
:1072D00029F81C4801211C4A02F078FE19480821AF
:1072E000FFF70AF8164B00221A701EE01548082115
:1072F000FFF746F80346002B17D014480421FEF789
:10730000D3FF0346DAB2124B1A700E480821FFF77A
:1073100009F80C4801210F4A02F058FE09480021E3
:10732000FEF7EAFF064B01221A7006480821FFF714
:1073300011F804480021FFF70DF880BD5CCDFF1F58
:1073400064CDFF1F00020140A0DF00080082024858
:1073500060CDFF1FA4DF000880B500AF234B5B7832
:10736000012B3AD1224B5B78012B17D12148002108
:10737000FFF706F80346002B2FD01E480021FEF72A
:10738000D1FF1C4801211C4A02F020FE19480821A7
:10739000FEF7B2FF164B00225A701EE01548082176
:1073A000FEF7EEFF0346002B17D014480521FEF729
:1073B0007BFF0346DAB2124B5A700E480821FEF7E3
:1073C000B1FF0C4801210F4A02F000FE09480021DC
:1073D000FEF792FF064B01225A7006480821FEF77D
:1073E000B9FF04480021FEF7B5FF80BD5CCDFF1F4B
:1073F00064CDFF1F00010140A0DF000800820248A9
:1074000060CDFF1FA4DF000880B500AF234B9B7841
:10741000012B3AD1224B9B78012B17D12148002117
:10742000FEF7AEFF0346002B2FD01E480021FEF7CB
:1074300079FF1C4801211C4A02F0C8FD19480821A7
:10744000FEF75AFF164B00229A701EE015480821DD
:10745000FEF796FF0346002B17D014480221FEF7D3
:1074600023FF0346DAB2124B9A700E480821FEF74A
:1074700059FF0C4801210F4A02F0A8FD09480021DC
:10748000FEF73AFF064B01229A7006480821FEF7E4
:1074900061FF04480021FEF75DFF80BD5CCDFF1F4A
:1074A00064CDFF1F00040140A0DF000800820248F5
:1074B00060CDFF1FA4DF000880B500AF234BDB7851
:1074C000012B3AD1224BDB78012B17D12148002127
:1074D000FEF756FF0346002B2FD01E480021FEF773
:1074E00021FF1C4801211C4A02F070FD19480821A7
:1074F000FEF702FF164B0022DA701EE01548082145
:10750000FEF73EFF0346002B17D014480321FEF779
:10751000CBFE0346DAB2124BDA700E480821FEF7B2
:1075200001FF0C4801210F4A02F050FD09480021DB
:10753000FEF7E2FE064B0122DA7006480821FEF74C
:1075400009FF04480021FEF705FF80BD5CCDFF1F49
:1075500064CDFF1F00030140A0DF00080082024845
:1075600060CDFF1FA4DF000880B588B000AFF860D1
:107570000B467A607B81404B93F83C311A462C23B2
:1075800003FB02F33C4A13440433BB610023FB8238
:107590000023FB830023BB837B68002B07D07B6821
:1075A0001B887A89D31A7B817B681B88FB834CE01C
:1075B000BB695B681B0903F00103DBB2002B00D041
:1075C00043E000F067FA0346002B2BD0BB691A6A30
:1075D000BB699B69D21A7B89934228BF1346FB8201
:1075E000BB69DB691A46BB699B6913441946FA8B70
:1075F000FB6813441A46FB8A084611461A4601F0F6
:10760000B1F8BB699A69FB8A1A44BB699A61FA8B23
:10761000FB8A1344FB837B89BB837A89FB8AD31A59
:107620007B8112E000F0BCF97B68002B04D07B6802
:10763000FA8B1A8005231BE000F0D0F803467B7517
:107640007B7D002B01D07B7D12E07B89002BAFD1AD
:107650007B89002B0BD1BB699B88C3F38613DBB2FC
:107660009BB2BA8B9A4202D1044B01221A700023BA
:1076700018462037BD4680BD74D0FF1F68CDFF1F60
:1076800080B584B000AF78600B467B80184BBB6040
:1076900026E0BB685B681B0903F00103DBB2002B2B
:1076A0001ED1BB681A6A7B889A4202D97B88FB810B
:1076B00002E0BB681B6AFB81BB68DA69FB89104684
:1076C00079681A4601F04EF8BB689A69FB891A443A
:1076D000BB689A617A88FB89D31A7B8000F060F9D5
:1076E0007B88002BD5D1002318461037BD4680BDBE
:1076F00078D0FF1F80B584B000AF78600B467B80E8
:10770000164BFB6022E0FB685B685B0903F001033A
:10771000DBB2002B1AD0FB689A687B88934228BFA3
:1077200013467B81FB681A697B89786811461A4683
:1077300001F018F8FB689A687B89D21AFB689A6096
:107740007A887B89D31A7B8000F0DEF87B88002B57
:10775000D9D1002318461037BD4680BD78D0FF1F11
:1077600080B483B000AF0346FB7197F90730002B5C
:107770000BDB084997F907305B09FA7902F01F0221
:10778000012000FA02F241F823200C37BD465DF8D3
:10779000047B704700E100E080B483B000AF034693
:1077A000FB7197F90730002B10DB0B4997F9073075
:1077B0005B09FA7902F01F02012000FA02F220337D
:1077C00041F82320BFF34F8FBFF36F8F0C37BD46B7
:1077D0005DF8047B704700BF00E100E080B586B033
:1077E00000AF6423FB75464B1B689B6B98470346B1
:1077F000BB82434B93F83C311A462C2303FB02F324
:107800003F4A13440433FB60FB681B7823F07F037B
:10781000DBB2802B23D13A4B93F83C311A462C2310
:1078200003FB02F3364A13440433BB60BB685B6856
:107830001B0903F00103DBB2002B08D1BB681B79E5
:1078400003F00203DBB2002B01D0012300E0002390
:1078500003F00103DBB2002B1BD000234BE0284BCD
:1078600093F83C311A462C2303FB02F3244A1344B9
:1078700004337B607B685B685B0903F00103DBB268
:10788000002B14BF01230023DBB2002B01D0002307
:1078900031E01C4B1B78FB74FB7C002B01D10223D5
:1078A00029E0FB7C052B01D1032324E0144B93F842
:1078B0003C311946124A2C2303FB01F313441B7A73
:1078C000C3F38003DBB2002B01D0012313E00C4B88
:1078D0001B689B6B984703463B823A8ABB8A9A4255
:1078E00008D03B8ABB82FB7D5A1EFA75002B01D162
:1078F000042300E07DE718461837BD4680BD00BF71
:1079000074D0FF1FB5D1FF1F80B582B000AF234BED
:1079100093F83C311A462C2303FB02F31F4A13440D
:1079200004337B607B681B7903F00203DBB2002B1E
:1079300000D130E0194B1B68DB6A7A6810787A68EE
:1079400011697A685269984703461A467B689A60BB
:107950007B680022DA607B685B68DB0803F0010368
:10796000DBB2002B17D17B689B68002B13D17A68A0
:10797000938843F0080393807A6893886FF34513E4
:107980009380064B1B689B6A7A6811787A68526903
:107990000846114698470837BD4680BD74D0FF1F82
:1079A00080B582B000AF394B93F83C311A462C2396
:1079B00003FB02F3354A134404337B607B685B6846
:1079C0001B0903F00103DBB2012B06D07B681B7996
:1079D00003F00203DBB2002B00D154E07A689388F5
:1079E00043F0100393807B68DA697B689A627B6856
:1079F0009A697B685A627B6800229A616B20FFF764
:107A0000CBFE224B1B681B6B7A6810787A68916AF0
:107A10007A68526A984738607B689A6A3B681A4469
:107A20007B689A627B685A6A3B68D21A7B685A62A2
:107A30006B20FFF795FE164B1B78DBB2012B22D192
:107A40007B681B7803F00F03DBB2002B1BD000BF59
:107A50007B685B681B0903F00103DBB2002BF7D1E5
:107A60007A68938843F010039380084B1B681B6B64
:107A70007A6811787A68926A084611460022984717
:107A8000034B00221A700837BD4680BD74D0FF1F1B
:107A900068CDFF1F80B483B000AF164B93F83C3124
:107AA0001A462C2303FB02F3124A134404333B60AF
:107AB0000023FB713B681B7823F07F03DBB2002BB4
:107AC00009D03B689A693B681B6A9A4234BF01231C
:107AD0000023FB7106E03B689B68002B14BF012369
:107AE0000023FB71FB7918460C37BD465DF8047B1B
:107AF000704700BF74D0FF1F80B485B000AF03464D
:107B0000FB71164B93F83C311A462C2303FB02F30E
:107B1000124A13440433BB600023FB73BB689A69A9
:107B2000BB681B6A9A420DD2BB68DA69BB689B6965
:107B30001344FA791A70BB689B695A1CBB689A6136
:107B40000123FB73FB7B83F00103DBB2002BE5D148
:107B50001437BD465DF8047B704700BF74D0FF1F2B
:107B600090B585B000AF78600B46FB700023FB73C7
:107B700092E0FA7B13465B0013445B001A467B6875
:107B800013441B7803F00F03BB73484B1B68DC697D
:107B9000FA7B13465B0013445B001A467B68134470
:107BA0001878FA7B13465B0013445B001A467B6827
:107BB00013441979FA7B13465B0013445B001A46A1
:107BC0007B6813445B881A46A0470346002B01D00C
:107BD000002367E0B97BFA7B13465B0013445B002C
:107BE0001A467B6813441878304A2C2303FB01F3B0
:107BF000134402461A71B87BFA7B13465B001344A8
:107C00005B001A467B6813445B88DBB203F07F039A
:107C1000D9B2264A2C2303FB00F31A44138961F3DB
:107C20008C131381BB7B214A2C2101FB03F31A44E3
:107C3000137A43F001031372BB7B1C4A2C2101FB16
:107C400003F31A44137A43F002031372FA7B1346C8
:107C50005B0013445B001A467B6813441B78DBB25D
:107C60005BB2002B15DB114B1B689C6AFA7B134639
:107C70005B0013445B001A467B6813441878BB7B97
:107C80000A4A2C2101FB03F3134410339B68194665
:107C9000A047FB7B0133FB73FA7BFB789A42FFF42E
:107CA00068AF012318461437BD4690BD74D0FF1F3E
:107CB00080B500AF084B1B685B6A802001219847A4
:107CC000054B012283F83B21034B1B689B6A002074
:107CD0001821984780BD00BF74D0FF1F80B586B0C3
:107CE00000AF00237B6100237B81AA4B5B889BB2A2
:107CF000FB7401F0BDF9A84B93F83E31DBB25B0891
:107D000003F00103DBB2002B00F00082A14B5B7893
:107D10000C2B00F2F28101A252F823F09B7E0008A6
:107D2000517D0008FB8000082F800008FB800008C0
:107D3000857F0008F77D0008F37F0008E77D0008D5
:107D4000BB7F0008617E0008F97F0008F58000080D
:107D5000904B1B7803F00303022B33D18D4B9B8890
:107D60009BB203F00F033B828C4B1B78DBB2042BDE
:107D700004D0884B9B889BB2002B20D13B8A864A3B
:107D80002C2101FB03F313441B7AC3F30003DBB282
:107D9000012B14D13B8A804A2C2101FB03F31A44A6
:107DA000137A6FF3820313727B4B1B685B6A794A09
:107DB000928892B2D2B21046002198479FE1FFF715
:107DC00077FF9CE1734B1B7803F00303002B07D173
:107DD000714A92F83E316FF3820382F83E318EE1B0
:107DE000FFF766FF8BE16C4B1B681B6B00206C4937
:107DF0000122984783E1674B5B8899B2654B9B886A
:107E00009BB2DAB23B1D084611461A4600F092FFBB
:107E100003467B617B69002B02D1FFF749FF6EE1CE
:107E20005C4BDB889BB21A467B69934228BF1346A2
:107E30007B61594B1B681B6B7A68002011467A697D
:107E400098470346FB607A69FB68D31A524A9362EB
:107E50007B681A46FB6813441A464F4BDA624EE1C0
:107E60004E4B1B78DBB2042B0ED14B4B1B681B6BAC
:107E7000484A928892B202F59C7247490A4400200F
:107E80001146012298473AE1444B1B78DBB2032BA1
:107E900002D1FFF70DFF32E131E13E4B1B7803F0D9
:107EA0000303002B1CD13C4B93F83E31C3F38003FA
:107EB000DBB25B009AB2384B93F83E31C3F3C00398
:107EC000DBB29BB213439BB29BB27B81324B1B68EC
:107ED0001B6B07F10A0200201146022298470EE1AF
:107EE0002C4B1B7803F00303012B10D12B4B1B7879
:107EF000DBB2042B0BD100237B81274B1B681B6B50
:107F000007F10A020020114602229847F7E0214BB0
:107F10001B7803F00303022B31D11E4B9B889BB2CD
:107F200003F00F033B821D4B1B78DBB2042B04D004
:107F3000184B9B889BB2002B21D13B8A164A2C21DF
:107F400001FB03F313441B7AC3F30003DBB2012BE1
:107F500015D13B8A104A2C2101FB03F313441B7AF1
:107F6000C3F38003DBB29BB27B810B4B1B681B6BA3
:107F700007F10A020020114602229847BFE0FFF7EE
:107F800097FEBCE0FB7C002B0CD1044B02221A7044
:107F90000BE000BFB8D1FF1F74D0FF1FB5D1FF1F8A
:107FA000ADD1FF1F5B4B03221A705B4B1B689B69B3
:107FB000FA7C104600219847A1E0574AFB7C82F8E2
:107FC000393101F02DF8FB7C002B03D1514B0322FA
:107FD0001A7094E0504B93F83E3103F00103DBB28A
:107FE000002B03D04B4B04221A7088E0FFF760FE91
:107FF00085E0FFF75DFE82E0464B1B78DBB2042B89
:108000000CD1464B9B889BB21946444B5B889BB274
:10801000DAB2414B0B4483F8382170E03D4B1B78BA
:10802000DBB2032B02D1FFF743FE68E067E0FB7C85
:10803000022B02D1FFF73CFE61E0364B1B78DBB22E
:10804000042B38D1FB7C002B0AD0012B00D056E04A
:10805000314A92F83E3143F0040382F83E3129E080
:108060002E4B9B889BB203F00F033B823B8A2A4A2C
:108070002C2101FB03F313441B7AC3F30003DBB28F
:10808000002B02D1FFF714FE13E03B8A224A2C2179
:1080900001FB03F31A44137A43F0040313721E4BDB
:1080A0001B685B6A1D4A928892B2D2B210460121C7
:1080B000984700BF23E0174B1B78DBB2032B16D188
:1080C000FB7C002B13D1154B1B7803F00303022B11
:1080D0000DD1124B9B889BB2DBB2002B07D10E4A0D
:1080E000137A43F004031372FFF7E2FD07E0FFF792
:1080F000DFFD04E0FFF7DCFD01E0FFF7D9FD064BF3
:1081000093F83E2122F0020283F83E211837BD4643
:1081100080BD00BFB5D1FF1F74D0FF1FB8D1FF1FB6
:1081200080B500AF104B93F83B31022B09D10E4BB9
:108130001B689B6A0020002198470B4B052283F89F
:108140003B21094B93F83B31032B0BD1064B1B68AA
:108150009B6A054A1279104618219847024B012262
:1081600083F83B2180BD00BF74D0FF1F80B500AFF6
:10817000114B93F83B31042B0CD1FFF7AFFD0E4BA5
:108180001B681B6B00200021002298470A4B03222A
:1081900083F83B21084B93F83B31052B0BD1064B61
:1081A0001B689B6A044A1279104618219847024BB3
:1081B000012283F83B2180BD74D0FF1F80B582B0BF
:1081C00000AF214B1B68DB6A00202049082298473A
:1081D00078601D4B93F83E2142F0020283F83E2165
:1081E0007B68082B00D02CE0184BDB889BB2002B5F
:1081F0000DD1154B032283F83B21FFF76FFD124B86
:108200001B681B6B002000210022984719E00F4BD0
:108210001B78DBB25BB2002B06DA0B4B022283F831
:108220003B21FFF75BFD0CE0074B042283F83B2169
:10823000054B1B689B6A054AD28892B20020114602
:1082400098470837BD4680BD74D0FF1FB8D1FF1FC7
:1082500080B584B000AF0346FB71FB79092B00F2B7
:10826000FC8001A252F823F0BD830008AB83000814
:10827000998300089F830008918200085B840008AE
:1082800043840008338400085B840008938300085B
:10829000744B02221A70744B012283F83B21724AFC
:1082A00092F83E316FF3820382F83E310023FB6087
:1082B0004FE06D4AFB682C2101FB03F31A4413893C
:1082C0006FF304131381684AFB682C2101FB03F34D
:1082D0001A4413896FF3C3031381634AFB682C218B
:1082E00001FB03F31A44137A6FF382031372FB68E2
:1082F000002B2BD05C4AFB682C2101FB03F31344B9
:108300001B7AC3F30003DBB2002B1FD0564B1B6854
:108310001B6A5549FA682C2000FB02F20A441279C4
:1083200010469847504AFB682C2101FB03F31A447E
:10833000137A6FF3000313724B4AFB682C2101FB85
:1083400003F31A44137A6FF341031372FB6801338A
:10835000FB60FB68062BACDD434B002283F8392120
:108360000023FB6009E0404AFB68134403F59C735B
:1083700000221A70FB680133FB60FB68002BF2DD02
:10838000394B1B689B6A384A127910461821984766
:1083900064E000F0E1F961E000F03CFE5EE0314BAA
:1083A00001221A7000F0D8F958E02E4B00221A7002
:1083B0002D4B1B681B6A002098474FE0294B012278
:1083C0001A70294800214FF4A07205F0B8FD264B21
:1083D000264A1A60244B012283F83B21224B244A6F
:1083E0001A62214B4FF480725A621F4B214A5A6124
:1083F0001D4B4FF480729A611B4A13796FF3C713B8
:108400001371194A137A43F001031372164A137A4F
:1084100043F002031372144A1389402161F38C1351
:108420001381114B1B68DB69002000214022984713
:1084300014E00D4B93F83A210A4B1A7000F08CF9B6
:108440000CE0084B1B78DAB2074B83F83A21054B56
:1084500005221A7000F080F900E000BF1037BD4619
:1084600080BD00BFB5D1FF1F74D0FF1F90E0000892
:1084700074CEFF1F74CFFF1F80B586B000AF0346D8
:108480000A46FB711346BB71FB7903F00F032C22E4
:1084900002FB03F35D4A134404337B615B4B93F8A7
:1084A0003C31FB74594B93F83D31BB74FB7903F0BD
:1084B0000F03DAB2554B83F83C21FB7923F07F039D
:1084C000DAB2524B83F83D21BB79012B13D0022B3A
:1084D0003AD0002B40F08F807A6993886FF3C30302
:1084E00093804A4B93F83C31002B00D002E0FFF719
:1084F00065FE00BF7FE07A69938843F02003938094
:108500007B699B68002B10D17B690022DA603F4BAE
:108510001B68DB6A7A6910787A6911697A6952692D
:10852000984703461A467B699A607A6993886FF385
:10853000C3039380354B93F83C31002B00D002E00D
:10854000FFF714FE00BF56E07B695B6A002B17D073
:108550002E4B1B681B6B7A6910787A69916A7A696D
:10856000526A9847F8607B695A6AFB68D21A7B693D
:108570005A627B699A6AFB681A447B699A6242E094
:108580007B691B7803F00F03DBB2002B21D17B69E1
:108590009B69002B1DD07B699B691D4AD28892B2D2
:1085A000934216D07B699B697A699288C2F38612DE
:1085B000D2B2B3FBF2F102FB01F29B1A002B08D1FD
:1085C000124B1B681B6B7A6912781046002100223F
:1085D00098477B6900229A617A6993886FF3041344
:1085E00093800A4B93F83C31002B00D002E0FFF758
:1085F00097FD00BF00BF054AFB7C82F83C31034A6F
:10860000BB7C82F83D311837BD4680BD74D0FF1F5A
:10861000B8D1FF1F80B584B000AF78600023FB6045
:108620002A4800214FF4A07205F089FC284B002253
:108630001A70264B274A1A60244B012283F83B21EB
:10864000224B254A1A62214B4FF480725A621F4B0B
:10865000224A5A611D4B4FF480729A611B4A13796A
:108660006FF3C7131371194A137A43F0010313729E
:10867000164A137A43F002031372144A13894021F5
:1086800061F38C131381114B1B685B687868984702
:108690000346FB60FB68002B02D04FF0FF3311E074
:1086A0000A4B1B68DB690020002140229847FB68C9
:1086B000002B06D0054B1B689B6898474FF0FF3393
:1086C00000E0002318461037BD4680BD74D0FF1F60
:1086D000B5D1FF1F90E0000874CEFF1F74CFFF1FBD
:1086E00080B485B000AF03463960FB711346BB8090
:1086F000FB7903F00F03FB73FB795BB2002B12DAFB
:10870000FB7B144A2C2101FB03F3134418333A6812
:108710009A60FB7BBA880F492C2000FB03F30B44C3
:1087200020335A6011E0FB7B0A4A2C2101FB03F342
:10873000134410333A685A60FB7BBA8805492C20F1
:1087400000FB03F30B4410339A601437BD465DF809
:10875000047B704774D0FF1F80B400AFBD465DF846
:10876000047B7047130911D051F804CB40F804CBB7
:1087700051F804CB40F804CB51F804CB40F804CBBB
:1087800051F804CB40F804CB013BEDD112F00F03BC
:1087900005D011F801CB00F801CB013BF9D17047AE
:1087A0002DE9F04F8FB002AF7860B44991F83E11D7
:1087B000C9B2490801F00101C9B2002914BF012161
:1087C0000021C9B281F00101C9B2002900D0ABE19A
:1087D000AB49898888B27968097889B2884200D023
:1087E000A2E1A749497801390A2900F29D8101A037
:1087F00050F821F021880008B18A0008D9890008C2
:10880000298B0008298B0008298B0008298B000878
:10881000298B00080F890008858A00084D8A000806
:10882000974B1B78A12B71D16B461D460023FB8112
:10883000934B5B889BB2DBB27B73914B5B889BB2A3
:108840001B0A9BB2DBB2013B87F82F307B68197B98
:108850000B46013BBB62CAB24FF000034FEAC30BA9
:108860004BEA527B4FEAC20ACAB24FF000034FEA0A
:10887000C30949EA52794FEAC2080B460733DB08BD
:10888000DB00ADEB030D02AB00337B627B6A0A4673
:108890001846002105F053FB7C6A07F10D0197F89B
:1088A0002F2007F10E03009378682346FDF7D8F8D0
:1088B0007B689B68002B09D07B6899687A6A7B6823
:1088C0001B7B084611461A46FFF74CFF00226B4BF4
:1088D00083F83C210022694B83F83D21674B93F8D4
:1088E0003E2122F0020283F83E217B7B002B03D045
:1088F0007B7B1846FFF700F97A6AFB891046194618
:10890000FEF7BEFEFFF700F8AD460DE10CE15C4955
:10891000097821295FD16946884659498879C979FA
:108920000902014379845649498889B287F82110A0
:108930005349498889B2090A89B2C9B2013987F80D
:1089400020107E8C31460139F961B0B24FF0000140
:10895000CD0045EA5075C400B0B24FF00001CB0025
:1089600043EA5073C20033460733DB08DB00ADEB4C
:10897000030D02AB0033BB61404B93F83E2122F064
:10898000020283F83E21BA697B8C10461946FEF735
:10899000B1FEFFF705F897F82130002B14BF012333
:1089A0000023DBB21A46BB699C1897F82130002BD4
:1089B00014BF01230023DBB29BB27A8CD31A9BB283
:1089C00097F8211097F82020009378682346FDF748
:1089D0006DF8C546A8E0A7E0294B1B78A12B34D140
:1089E000264B93F83E2122F0020283F83E2100BF7D
:1089F000224B93F83C311A462C2303FB02F31F4A07
:108A0000134404337B617B695B681B0903F001033A
:108A1000DBB2002B08D17B691B7903F00203DBB2C8
:108A2000002B01D0012300E0002303F00103DBB29F
:108A300083F00103DBB2002BDAD17B681B7C184684
:108A4000FFF75AF8FEF7ACFF6EE06DE00C4B1B78B9
:108A5000212B12D1094B93F83E2122F0020283F818
:108A60003E21074B5B889BB2DBB2002B14BF012376
:108A70000023DAB27B681A7456E055E074D0FF1F09
:108A8000B8D1FF1F2A4B1B78212B10D1294B93F80B
:108A90003E2122F0020283F83E21254B5B889BB2E7
:108AA00003F47F439B119AB27B689A823CE03BE0DF
:108AB0001F4B1B78A12B36D11E4B93F83E2122F081
:108AC000020283F83E2100BF1A4B93F83C311A464C
:108AD0002C2303FB02F3174A134404333B613B6925
:108AE0005B681B0903F00103DBB2002B08D13B6973
:108AF0001B7903F00203DBB2002B01D0012300E05D
:108B0000002303F00103DBB283F00103DBB2002B8F
:108B1000DAD17B689B8A9B089BB2DBB21846FEF7D2
:108B2000EBFFFEF73DFF00BF3437BD46BDE8F08FD9
:108B3000B8D1FF1F74D0FF1F80B582B000AF78603E
:108B40007B68103318460021082205F0F8F97B688D
:108B500001221A747B6840F2EE229A827B6803221B
:108B60009A717B68023318460121FEF7F9FF03462C
:108B700083F00103DBB2002B01D0002300E00123CE
:108B800018460837BD4680BD2DE9F0438BB002AFD3
:108B90007860664B1B78DBB2042B00D0C2E07B68A8
:108BA0005E8A634B1B689B6B984703469E4200D1CD
:108BB000B8E07B689B787B747B7C03F00F03DAB2B0
:108BC0005B4B83F83C217B7C23F07F03DAB2584B6C
:108BD00083F83D21FEF75EFF0346002B00F0A280E4
:108BE0006B461E467B68197B0B46013BBB61CAB2D4
:108BF0004FF000034FEAC30949EA52794FEAC2082D
:108C0000CAB24FF00003DD0045EA5275D4000B46AE
:108C10000733DB08DB00ADEB030D02AB00337B61F8
:108C20000023FB730023BB817B690A4618460021A1
:108C300005F085F97C6907F10F0207F10C03009339
:108C40007868114600222346FCF70AFF0346FB74AE
:108C50000023FB777B689B8A002B05D07B68DB8A2F
:108C6000002B01D1012300E00023BB74BB7C03F087
:108C70000103BB747B689B68002B19D07A697B6801
:108C80009B68B9890C4610461946224605F03CF906
:108C90000346002B14BF01230023FB777B689968F0
:108CA0007A697B681B7B084611461A46FFF75AFD16
:108CB000BB89002B2DD0FB7C002B05D1FB7F002B2B
:108CC00002D1BB7C002B24D07B689A8A7B68DA8235
:108CD0007B689B783B743B7C03F00F03DAB2144B48
:108CE00083F83C213B7C23F07F03DAB2104B83F8FE
:108CF0003D21FB7B002B03D0FB7B1846FEF7FCFEDF
:108D00007A69BB89104619460022FEF72DFCFEF752
:108D100047FE074B1B689B6B984703461A467B68C8
:108D20005A82B5462437BD46BDE8F083B5D1FF1F52
:108D300074D0FF1F80B485B000AF03463A60FB805B
:108D40000B467B71FB881B0A9BB27B72FB883B72D4
:108D50000023FB6000237B817B7A013B212B73D8AE
:108D600001A252F823F000BFF18D0008FB8D00082E
:108D7000058E0008498E0008498E0008498E0008BB
:108D8000498E0008498E0008498E0008498E000867
:108D9000498E0008498E0008498E0008498E000857
:108DA000498E0008498E0008498E0008498E000847
:108DB000498E0008498E0008498E0008498E000837
:108DC000498E0008498E0008498E0008498E000827
:108DD000498E0008498E0008498E0008498E000817
:108DE000498E0008498E0008358E00083F8E000825
:108DF0001A4BFB6012237B8126E0194BFB60222378
:108E00007B8121E03B7A012B09D0022B0CD0002B77
:108E100000D019E0134BFB6004237B8109E0124B67
:108E2000FB6058237B8104E0104BFB6028237B818F
:108E300000BF09E00E4BFB6009237B8104E00D4B72
:108E4000FB6020237B8100BF3B68FA681A607B8946
:108E500018461437BD465DF8047B7047C8DF00082C
:108E6000DCDF000800E0000808E0000864E000081B
:108E7000EEDF0008A8DF000880B400AF044BDB6819
:108E800003F4E0631B0A1846BD465DF8047B704797
:108E900000ED00E080B483B000AF0346FB7197F9AA
:108EA0000730002B0BDB084997F907305B09FA798B
:108EB00002F01F02012000FA02F241F823200C37D1
:108EC000BD465DF8047B704700E100E080B483B0EC
:108ED00000AF0346FB7197F90730002B0CDB094903
:108EE00097F907305B09FA7902F01F02012000FAB6
:108EF00002F2603341F823200C37BD465DF8047B55
:108F0000704700BF00E100E080B483B000AF0346CB
:108F10003960FB7197F90730002B0ADB0D4997F98F
:108F200007303A68D2B29200D2B20B4483F80023E1
:108F30000AE00949FB7903F00F03043B3A68D2B217
:108F40009200D2B20B441A760C37BD465DF8047B12
:108F5000704700BF00E100E000ED00E080B489B0A0
:108F600000AFF860B9607A60FB6803F00703FB614B
:108F7000FB69C3F10703062B28BF0623BB61FB690E
:108F80000633062B02D9FB69013B00E000237B611D
:108F9000BB69012202FA03F35A1EBB681A407B69BF
:108FA0009A407B69012101FA03F3591E7B680B404B
:108FB000134318462437BD465DF8047B704700BF55
:108FC00080B500AF014802F075F980BD3CC8FF1FB5
:108FD00080B500AF0D48FFF71DFBFFF74DFF0346BF
:108FE00018463F210022FFF7B9FF03466B201946C0
:108FF000FFF78AFF6B20FFF769FF6B20FFF74AFF3F
:10900000034B1B68DB68984780BD00BF3CC8FF1F4F
:1090100074D0FF1F80B400AFBD465DF8047B70477D
:1090200080B582B000AF0123FB7181200D49402241
:10903000FFF756FB0C48FFF77FFD03461A46FB7906
:109040001340002B14BF01230023FB71074A92F841
:109050003E31F97961F3000382F83E310837BD46AD
:1090600080BD00BFC0D1FF1F24C8FF1F74D0FF1FE9
:1090700080B500AF0148FFF793FB80BD24C8FF1FF8
:1090800098B500AF084A4FF0005314460FCB84E860
:109090000F00064B064A07CA83E8070004F0D8F819
:1090A00004F040F998BD00BFC45F0020D45F0020E9
:1090B0008400002080B584B000AF2F4BDB6803F440
:1090C0008033002B3ED02D4BDB6803F00103002BD7
:1090D00002D02B4BFB6002E004F01AF9F860274B3A
:1090E0001B6803F00403002B20D0244B9B6803F083
:1090F00070631B0E0133BB60204B9B6803F4FE437F
:109100001B0A01337B601D4B9B6803F4FE031B0CA1
:1091100001333B60BB683A6802FB03F3FA68B2FBB9
:10912000F3F37A6802FB03F3FB600DE0134B9B68DB
:1091300003F07F0301333B60FA683B68B2FBF3F353
:10914000FB6001E00E4BFB600B4BDB68DBB20133D5
:10915000FA68B2FBF3F3FB60074B1B6903F00103F2
:109160000133FA68B2FBF3F3FB60064AFB68136055
:109170001037BD4680BD00BF00460050104700506C
:1091800000366E01C05F002080B485B000AFF8608B
:109190000B467A60FB72FB7A9B08DBB21846FB7ABF
:1091A0009B08DBB21A46FB68043253F82220FB7A94
:1091B00003F00303DB001946F8238B40DB4302EA8C
:1091C0000301FB68021D43F82210FB685A6FFB7A0B
:1091D0005B00194603238B40DB431A40FB685A6748
:1091E000FB68354A93420AD1FB681A6EFB7A01216B
:1091F00001FA03F3DB431A40FB681A663CE07B6824
:109200005A68FB7A9A40FB685A60FB7ADB08DBB24B
:109210001846FB7ADB08DBB21A46FB68103253F8BB
:109220002220FB7A03F007039B00194607238B409B
:10923000DB4302EA0301FB6800F1100243F822104D
:10924000FB7ADB08DBB21846FB7ADB08DBB21A4696
:10925000FB68103253F822207B681B7A1946FB7A90
:1092600003F007039B0001FA03F342EA0301FB68E2
:1092700000F1100243F82210FB7A9B08DBB218467B
:10928000FB7A9B08DBB21A46FB68043253F82220B3
:109290007B681B781946FB7A03F00303DB0001FAB5
:1092A00003F342EA0301FB68021D43F8221014375E
:1092B000BD465DF8047B7047008E024880B400AF65
:1092C000034B1B681846BD465DF8047B704700BF22
:1092D000C05F002080B584B000AF7860FFF7EAFE81
:1092E0000B4B1B680B4AA2FB03239A0C7B6802FB07
:1092F00003F37B600023FB6003E000BFFB680133E6
:10930000FB60FA687B689A42F7D31037BD4680BD90
:10931000C05F002083DE1B43B0B584B002AF78602D
:10932000002000F095F800F03BFA7B68DB79002B19
:109330000AD000F073FA00BF00F05EFA034683F033
:109340000103DBB2002BF7D17B685B7A184600F093
:10935000F9F87B681B7A184600F0F0F97B681B7CF3
:10936000184600F00DF97B685B7C184600F030F978
:109370007B689B7C184600F017F97B68DB7C1846FD
:1093800000F03AF97B689B79002B0AD000F078FA5C
:1093900000BF00F09DFA034683F00103DBB2002B0F
:1093A000F7D17B68DB78002B02D100F0B5FA14E02E
:1093B00000F0A2FA7B6899887B68DA787B685B7832
:1093C0001D467B681B781C467B689B78009308468B
:1093D00011462A46234600F0AFFA7B68DB68B3F5F6
:1093E000803F03D14FF4803000F032F8FFF762FE87
:1093F0000837BD46B0BD00BF80B485B000AF78600F
:109400007B681B0FFB607B6823F07043BB60FA68CE
:1094100013465B0013449B001A46044B1344BA687E
:109420001A601437BD465DF8047B70471444005041
:1094300080B500AFFFF742FF0246044B5B6903F0C3
:10944000010322FA03F3184680BD00BF0046005016
:1094500080B483B000AF78600649064BDB6823F424
:1094600080327B681343CB600C37BD465DF8047BCC
:10947000704700BF0046005080B483B000AF7860F2
:109480000649064B9B6923F480327B6813438B614A
:109490000C37BD465DF8047B704700BF00460050A6
:1094A00080B483B000AF78600649064B5B6A23F452
:1094B00040327B6813434B620C37BD465DF8047B3A
:1094C000704700BF0046005080B483B000AF034631
:1094D000FB80FB88002B08D10A4A0A4BDB6823F487
:1094E000807323F00103D36007E0064A054BDB6875
:1094F00043F4807343F00103D3600C37BD465DF83D
:10950000047B70471047005080B483B000AF03461F
:10951000FB7100BF094BD3F8C43003F00803002BE4
:10952000F8D10749064BDB6823F04002FB7913436F
:10953000CB600C37BD465DF8047B7047004000509F
:109540000043005080B483B000AF0346FB7100BFFE
:10955000094BD3F8C43003F00803002BF8D10749B6
:10956000064BDB6823F08002FB791343CB600C379A
:10957000BD465DF8047B704700400050004300503A
:1095800080B483B000AF78600649064BDB6823F0F7
:10959000FF027B68013B1343CB600C37BD465DF88F
:1095A000047B70470046005080B483B000AF786001
:1095B0000649064B1B6A23F001027B68013B1343FB
:1095C0000B620C37BD465DF8047B704700460050C7
:1095D00080B483B000AF78600649064B1B6923F066
:1095E00001027B68013B13430B610C37BD465DF8FC
:1095F000047B70470046005080B483B000AF7860B1
:109600000649064B5B6923F001027B68013B13436B
:109610004B610C37BD465DF8047B70470046005037
:1096200080B483B000AF78600649064B9B6923F095
:1096300007027B68013B13438B610C37BD465DF825
:10964000047B70470046005080B483B000AF786060
:109650000649064B5B6A23F0FF027B68013B13431C
:109660004B620C37BD465DF8047B704700460050E6
:1096700080B483B000AF0346FB71044AFB795360AA
:109680000C37BD465DF8047B704700BF00460050B4
:1096900080B485B000AF78607B681B0FFB607B688F
:1096A00023F07043BB60FA6813465B0013449B00D1
:1096B0001A46044B1344BA681A601437BD465DF865
:1096C000047B70474846005080B483B000AF786098
:1096D0003960194A184B5B6943F001035361164A1C
:1096E000154B5B6943F01003536113493B68013B21
:1096F0001A027B68013B1B0613434B610E4A0E4B5B
:109700005B6943F0400353610B4A0B4B5B6923F0E9
:1097100010035361084A084B5B6943F4802353618B
:1097200000BF054B1B6903F00403002BF9D00C3775
:10973000BD465DF8047B70471047005080B582B08D
:1097400000AF0346FB710F4A0E4B5B6843F4801376
:109750005360FB79012B0ED10A4A0A4B5B6823F454
:10976000801353606420FFF7B5FD064A054B5B6824
:1097700043F4002353606420FFF7ACFD0837BD4677
:1097800080BD00BF1047005080B400AF034B4FF4C2
:1097900080325A60BD465DF8047B7047004200503D
:1097A00080B400AF124B1B6803F00103002B09D1FA
:1097B0000F4B01225A6000BF0D4B1B6803F00103E1
:1097C000002BF9D00B4B1B6803F40073002B0AD05D
:1097D000084B4FF400729A6000BF064B1B6803F4FD
:1097E0000073002BF9D1BD465DF8047B704700BFC4
:1097F000004200500044005080B400AF064B1B688C
:1098000003F00803002B0CBF01230023DBB2184632
:10981000BD465DF8047B70470043005080B400AF44
:1098200000BF154BD3F8C43003F08003002BF8D1F0
:10983000124A124BDB6923F03003D36100BF0E4B99
:10984000D3F8C43003F00803002BF8D10B4A0B4BBC
:10985000DB6843F00803D36000BF074BD3F8C43084
:1098600003F00403002BF8D1044B08229A60BD4694
:109870005DF8047B704700BF00400050004300507B
:10988000B0B500AF0F4A0F4B5B6823F480335360D1
:109890000D4D0D4B5B6823F4702424F0300403F06D
:1098A00037FD0246094BA3FB02231B0D013B1B04A2
:1098B00023436B60034A034B5B6823F4003353601C
:1098C000B0BD00BF10470050004700506BCA5F6B2F
:1098D00080B400AF074B1B6803F46073B3F5607F7F
:1098E0000CBF01230023DBB21846BD465DF8047BA4
:1098F000704700BF1047005080B400AF054A054BC9
:109900005B6823F4803323F002035360BD465DF8A7
:10991000047B70471047005080B400AF054A054BE8
:109920005B6843F4803343F002035360BD465DF847
:10993000047B70471047005080B586B000AFBA6016
:109940007B600346FB810B467B73FB891846FFF760
:10995000BBFD7B7B012B40F08480FB89002B09D170
:1099600003F0D6FC02464B4BA3FB02239B0C9B054A
:109970007B6102E04FF0C0637B617B697A6802FB28
:1099800003F2BB68B2FBF3F37B617B69424AA2FB43
:1099900003231B099B0D3B61404A404B5B6843F02E
:1099A000010353603D4A3D4B5B6843F01003536035
:1099B0003A493A4B9A683A4B13407A68013A120294
:1099C0001A433B69013B1B041A43BB68013B1B065E
:1099D00013438B60314A314B5B6843F04003536063
:1099E0002E4A2E4B5B6823F0100353602B4A2B4BFF
:1099F0005B6843F48023536000BF284B1B6803F06F
:109A00000403002BF9D0254A244B5B6823F00103A3
:109A1000536000BF214B1B6803F00103002BF9D1F9
:109A20007B69204AA2FB03235B099B0D3B613A6AD9
:109A30003B699A4202D2386900F038F87B695B08CA
:109A4000194AA2FB03235B099B0D3B613A6A3B6900
:109A50009A4202D2386900F029F8386A00F026F8F4
:109A600015E00E490D4B9B6823F07F023B6A013BDA
:109A700013438B60094A094B5B6843F00103536051
:109A800000BF064B1B6803F00103002BF9D0183709
:109A9000BD4680BD83DE1B43ABAAAAAA1047005077
:109AA000FF8080F089888888B7600BB680B582B067
:109AB00000AF78600749074B9B6823F4FE027B6880
:109AC000013B1B0413438B603220FFF703FC083774
:109AD000BD4680BD1047005080B483B000AF7860B1
